:020000040000FA
:04000000F2EF25F006
:10484800120001C0C4F002C0C5F0CA8412008B8EE9
:10485800060EE82EFED700D08B9E12008B80060E27
:10486800E82EFED700D08B9012000102020202014E
:104878000800A0ECBDA0BDA034C0D9FF35C0DAFF48
:10488800DE2A000EDD2232C02AF033C02BF034C0FD
:104898002CF035C02DF0BFEC29F0120001C0D9FF73
:1048A80002C0DAFFDECF03F0DDCF04F0034A042AAA
:1048B80001C0D9FF02C0DAFF03C0DEFF04C0DDFF7C
:1048C800120001080202040802020808080802028D
:1048D80004080202080000000000B3BDB3BDEC8E5E
:1048E800D28E86ECB3A08EEC8ED2BDD20000000032
:1048F800FF0E0B6EFF0E0C6E09C00DF00AC00EF015
:104908000B500D260C500E220DC0F6F00EC0F7F01D
:104918000001F86BF96BFA6BFB6BFC6BFD6B12001B
:10492800016E0150D8B49BEF24F09DEF24F0A1EF65
:1049380024F08A808A92A3EF24F08A928A8295686A
:104948008A868A8800D083CF02F08A9800D08A901D
:104958008A92025012000A6E0A50D8B4B6EF24F0B8
:10496800B8EF24F0BCEF24F08A808A92C0EF24F0DC
:104978008A928A82C0EF24F0000E956E8A9609C04A
:104988008CFF8A8800D08A9800D08A908A92120078
:10499800030E0B6E120E7FEC26F0D80E146E7F0EEF
:1049A800156E610E166E010E176E9BEC27F0150E34
:1049B800196E4B0E186EBE0EE82EFED7182EFCD7B9
:1049C800192EFAD700D0000EA4EC28F0120032C03D
:1049D8002AF033C02BF034C02CF035C02DF05DEC3C
:1049E80029F0000E326E000E336E34C0D9FF35C088
:1049F800DAFF020EDE6E000EDD6E680E3A6EE40E11
:104A0800E82EFED73A2EFCD700D0120014BE17EFBE
:104A180025F0145006E11304D8B015EF25F017EF70
:104A280025F025EF25F013C015F014C016F0151E5B
:104A3800161E154A162A15C013F016C014F02BEFCF
:104A480025F013C013F014C014F02BEF25F012005A
:104A58002EC0D9FF2FC0DAFFDE2A000EDD222CC0BF
:104A6800D9FF2DC0DAFFDF50236EFF0E246ED3EC82
:104A78002BF03F0E1916000E1A162AC0D9FF2BC0AC
:104A8800DAFF19C0DEFF1AC0DDFFDECF30F0DDCF60
:104A980031F03050F7EC2AF01200000E106E000EC4
:104AA8000F6E64EF25F00EC001F0026A0CC003F02F
:104AB8000DC004F064EC2BF00F4A102A64EF25F0C7
:104AC8000F500A24D96E10500B20DA6EDF500E6E8C
:104AD8000E50D8A472EF25F074EF25F057EF25F0AB
:104AE80076EF25F012000F0EC16E000EC26E000E9A
:104AF800926E000E936E000E946E000E956E030E6D
:104B0800966E000E806E000E816E000E826E000E94
:104B1800836E030E846E0F0EC16E946894949E92F9
:104B2800000ECC6E9D823C0EBE6E0C0EBD6ECB6828
:104B3800030ECA6E120001C005F002C006F0A9EF0C
:104B480025F0014A022AA9EF25F001C0D9FF02C0C9
:104B5800DAFFDF50D8A4B3EF25F0B5EF25F0A5EFC5
:104B680025F0B7EF25F005C003F006C004F0031EDA
:104B7800041E034A042A01500324016E0250042033
:104B8800026EC7EF25F0120001500210D8B4CFEF23
:104B980025F0D1EF25F0E7EF25F001C0D9FF02C0DD
:104BA800DAFFFF0EDE6EFF0EDE6EFF0EDE6EFF0E0C
:104BB800DE6EFF0EDE6EFF0EDE6EFF0EDE6EFF0E89
:104BC800DD6EE7EF25F00168026803680468056890
:104BD800066807680868F1EF25F01200CA0EF66E3D
:104BE800480EF76E000EF86E01EE00F010EE2EF093
:104BF8000900F5CFEEFFE550E150FAE1720EF66ECE
:104C0800480EF76E000EF86E00EEE8F010EE0EF0AB
:104C18000900F5CFEEFFE550E150FAE100EEBCF0F7
:104C28002C0EEE6AE806FDE1000EF86E000152EF68
:104C380037F05C0E0001626F000E636F58C064F0BD
:104C480059C065F0000E676F000E666F000E696F41
:104C5800000E686F640E506E000E516E5AC052F00E
:104C68005BC053F0620E546E000E556E4CEC26F08D
:104C780050C060F051C061F0000166515824D96EEF
:104C880067515920DA6E000EDF6E4BEF26F01200E6
:104C980052C056F053C057F0000E0001BD6F000E11
:104CA800BC6F6CEF26F050C040F051C041F0560E7A
:104CB800426E000E436E54C044F055C045F0D1EC2E
:104CC80030F040500001BC274150BD236CEF26F066
:104CD80056C0F6FF57C0F7FF0800F5500009D8A4E2
:104CE80078EF26F07AEF26F057EF26F0BCC050F0A8
:104CF800BDC051F012000D6E000E0C6E800E0D60DE
:104D080088EF26F08AEF26F0B6EF26F0070E0B6440
:104D180090EF26F092EF26F096EF26F0B6EF26F009
:104D2800B6EF26F00DC0C7F00BC0C6F03F0E0D64FD
:104D3800A0EF26F0A2EF26F0A8EF26F0400E0D5EB9
:104D4800010E0C6EA8EF26F08A940D504009096EEA
:104D58000C50AFEC24F00B50B809096E0C50AFECB6
:104D680024F08A8412006C0E586E000E596EFC0EE8
:104D78005A6E7F0E5B6E5EC0D9FF5FC0DAFFDECF72
:104D88005CF0DDCF5DF01DEC26F0000EA4EC28F001
:104D9800030E0B6E460E7FEC26F0F50E146E7F0E9A
:104DA800156E610E166E010E176E9BEC27F01E0E27
:104DB8000B6E460E7FEC26F06C0E146E000E156E10
:104DC800610E166E010E176E9BEC27F0060E0001A1
:104DD8006B6F130E6A6FAD0EE82EFED76A2FFCD7E5
:104DE8006B2FFAD700D012000E6E000E836E8A9ACF
:104DF800210EE82EFED700F08A8A8A988A908A9235
:104E08008A9400D0C00E096E000EAFEC24F0C00EDC
:104E1800096E010EAFEC24F0400E096E000EAFECE7
:104E280024F0400E096E010EAFEC24F0B80E096EA6
:104E3800000EAFEC24F0B80E096E010EAFEC24F0B2
:104E48000E04D8A42AEF27F02CEF27F038EF27F02C
:104E58003F0E096E000EAFEC24F03F0E096E010EF6
:104E6800AFEC24F044EF27F03E0E096E000EAFECD5
:104E780024F03E0E096E010EAFEC24F044EF27F04B
:104E8800000EA4EC28F0120020EE11F0070EDE6AE6
:104E9800E806FDE250EF27F001A055EF27F057EFA5
:104EA80027F069EF27F0095011260A5012220B50FB
:104EB80013220C5014220D5015220E5016220F509A
:104EC80017221050182269EF27F0D89009360A36B1
:104ED8000B360C360D360E360F361036D890083293
:104EE80007320632053204320332023201320150EF
:104EF8000210031004100510061007100810D8A49B
:104F080088EF27F08AEF27F050EF27F011C001F063
:104F180012C002F013C003F014C004F015C005F06D
:104F280016C006F017C007F018C008F01200D5EF39
:104F380027F01650D8B4A3EF27F0A5EF27F0BBEF62
:104F480027F017C00BF014C0F6FF15C0F7FFF86A7A
:104F5800070EF76403D00800F55005D0F6CFE1FF3F
:104F6800F7CFE2FFE7503FEC2DF0D1EF27F017C065
:104F78000BF014C0F6FF15C0F7FFF86A070EF764C8
:104F880003D00800F55005D0F6CFE1FFF7CFE2FFD8
:104F9800E750D9EC2DF0D1EF27F0144A152AD5EFB8
:104FA80027F014C0F6FF15C0F7FFF86A070EF7647C
:104FB80003D00800F55005D0F6CFE1FFF7CFE2FFA8
:104FC800E7500009D8A4EBEF27F0EDEF27F09DEFAD
:104FD80027F0EFEF27F01200000E2D6E000E2C6E5A
:104FE8002DBE00EF28F02D5009E10F0E2C5CD8A043
:104FF80000EF28F002EF28F006EF28F049EF28F03C
:1050080049EF28F0000E2F6E000E2E6E2FBE16EF01
:1050180028F02F5009E1020E2E5CD8A016EF28F0D8
:1050280018EF28F01CEF28F037EF28F037EF28F0BA
:105038002E503C0F236EFF0E246E2C502A24F7ECC2
:105048002AF02E4A2F2A2FBE33EF28F02F5009E1DD
:10505800020E2E5CD8A033EF28F035EF28F01CEFB5
:1050680028F037EF28F02C4A2D2A2DBE45EF28F0DE
:105078002D5009E10F0E2C5CD8A045EF28F047EF22
:1050880028F006EF28F049EF28F01200000E2D6EE8
:10509800000E2C6E2DBE5AEF28F02D5009E10F0E90
:1050A8002C5CD8A05AEF28F05CEF28F060EF28F0CD
:1050B800A3EF28F0A3EF28F0000E2F6E000E2E6E3F
:1050C8002FBE70EF28F02F5009E1020E2E5CD8A0F9
:1050D80070EF28F072EF28F076EF28F091EF28F0C3
:1050E80091EF28F02E503C0F236E000E246E2C50AA
:1050F8002A24F7EC2AF02E4A2F2A2FBE8DEF28F00B
:105108002F5009E1020E2E5CD8A08DEF28F08FEF0A
:1051180028F076EF28F091EF28F02C4A2D2A2DBEA2
:105128009FEF28F02D5009E10F0E2C5CD8A09FEFBF
:1051380028F0A1EF28F060EF28F0A3EF28F0120084
:105148000B6E000E0D6E070E0D64ADEF28F0AFEF7D
:1051580028F0B3EF28F0FFEF28F0FFEF28F08A944B
:10516800400E096E000EAFEC24F0400E096E010EE1
:10517800AFEC24F00D50B809096E000EAFEC24F026
:105188000D50B809096E010EAFEC24F08A84000EA8
:105198000C6E3F0E0C64D3EF28F0D5EF28F0D9EF52
:1051A80028F0F4EF28F0F4EF28F00B50010DF3503D
:1051B8000008096E000EAFEC24F00B50010DF350FF
:1051C8000008096E010EAFEC24F00C2A3F0E0C64A7
:1051D800F0EF28F0F2EF28F0D9EF28F0F4EF28F0FC
:1051E8000D2A070E0D64FBEF28F0FDEF28F0B3EF52
:1051F80028F0FFEF28F01200000E0D6E000E0A6E68
:10520800000E096E000E0D6E51EF29F00D50010DC4
:10521800F3500524D96EF4500620DA6EDF50086E7C
:105228000850640DF3CF09F0F4CF0AF00D50010DCA
:10523800F3500324D96EF4500420DA6EDF50CB6E9D
:10524800FF0E026E000E016E25EC24F0000E0C6EAF
:10525800000E0B6E39EF29F0030E086E980EE82E3B
:10526800FED7082EFCD70B4A0C2A09500B5C0A50B3
:105278000C58D8A042EF29F044EF29F030EF29F07C
:1052880046EF29F0000ECB6EFF0E026E000E016E87
:1052980025EC24F00D2A51EF29F007500D5CD8A019
:1052A80058EF29F05AEF29F00AEF29F05CEF29F0BE
:1052B8001200000E2F6E000E2E6E2FBE6DEF29F01D
:1052C8002F5009E1030E2E5CD8A06DEF29F06FEF87
:1052D80029F073EF29F0BEEF29F0BEEF29F0000E98
:1052E800316E000E306E31BE83EF29F0315009E186
:1052F800030E305CD8A083EF29F085EF29F089EF01
:1053080029F0ACEF29F0ACEF29F02CC0D9FF2DC063
:10531800DAFFDF503024236E000E246E2AC0D9FF36
:105328002BC0DAFFDF502E24F7EC2AF0304A312A5E
:1053380031BEA8EF29F0315009E1030E305CD8A046
:10534800A8EF29F0AAEF29F089EF29F0ACEF29F0AE
:105358002E4A2F2A2FBEBAEF29F02F5009E1030E4B
:105368002E5CD8A0BAEF29F0BCEF29F073EF29F032
:10537800BEEF29F01200000E2F6E000E2E6E2FBE0B
:10538800CFEF29F02F5009E1030E2E5CD8A0CFEF04
:1053980029F0D1EF29F0D5EF29F020EF2AF020EFFE
:1053A8002AF0000E316E000E306E31BEE5EF29F0A6
:1053B800315009E1030E305CD8A0E5EF29F0E7EFA2
:1053C80029F0EBEF29F00EEF2AF00EEF2AF02CC0AF
:1053D800D9FF2DC0DAFFDF503024236EFF0E246E74
:1053E8002AC0D9FF2BC0DAFFDF502E24F7EC2AF0B1
:1053F800304A312A31BE0AEF2AF0315009E1030E52
:10540800305CD8A00AEF2AF00CEF2AF0EBEF29F075
:105418000EEF2AF02E4A2F2A2FBE1CEF2AF02F500B
:1054280009E1030E2E5CD8A01CEF2AF01EEF2AF02B
:10543800D5EF29F020EF2AF01200000E0C6E000EB6
:105448000B6E000E0E6E070E0E642DEF2AF02FEF76
:105458002AF033EF2AF089EF2AF089EF2AF0000EBC
:105468000F6E010E0F643BEF2AF03DEF2AF041EF7B
:105478002AF080EF2AF080EF2AF08A94400E096E15
:105488000F50AFEC24F00E50B809096E0F50AFEC76
:1054980024F08A84000E0D6E3F0E0D6456EF2AF03C
:1054A80058EF2AF05CEF2AF075EF2AF075EF2AF032
:1054B800150E0B24F66E7B0E0C20F76E0800F5CF48
:1054C80009F00F50AFEC24F00B4A0C2A0D2A3F0EBE
:1054D8000D6471EF2AF073EF2AF05CEF2AF075EF94
:1054E8002AF00F2A010E0F647CEF2AF07EEF2AF0D3
:1054F80041EF2AF080EF2AF00E2A070E0E6487EF9C
:105508002AF089EF2AF033EF2AF08A908A92120063
:105518000001C2A192EF2AF094EF2AF0A0EF2AF03E
:1055280013C00AF014C00BF011C00CF012C00DF03B
:1055380051EC25F0A0EF2AF016BEA5EF2AF0A7EF50
:105548002AF0ADEF2AF015C01AF016C01BF0B1EF23
:105558002AF0000E1B6E000E1A6E000E196E000E59
:10556800186EC5EF2AF0000E026E200E016E11C0F3
:1055780003F012C004F064EC2BF0184A192AC5EFA6
:105588002AF01A50185C1950800A176E1B50800AAE
:105598001758D8A0D2EF2AF0D4EF2AF0B7EF2AF0A4
:1055A8000001C2B1DAEF2AF0DCEF2AF0E8EF2AF0C6
:1055B80013C00AF014C00BF011C00CF012C00DF0AB
:1055C80051EC25F0E8EF2AF013C001F014C002F006
:1055D8009FEC25F01A500124116E1B500220126E08
:1055E800F6EF2AF01200276E000E296E3F0E276490
:1055F80000EF2BF002EF2BF008EF2BF0400E275EA8
:10560800010E296E08EF2BF08A94279E278C27C05D
:1056180009F02950AFEC24F023C001F0026A000E13
:10562800046E080E036E44EC2CF00150BF0BB80951
:10563800096E2950AFEC24F08A84295094EC24F0A8
:10564800295094EC24F0286E8A9427C009F0295038
:10565800AFEC24F02450D8B434EF2BF036EF2BF015
:1056680049EF2BF023C025F0070E2516010E266EF4
:10567800252A41EF2BF0D8902636252E3FEF2BF028
:1056880026502810286E5DEF2BF023C025F0070E5A
:105698002516010E266E252A54EF2BF0D8902636B3
:1056A800252E52EF2BF02650FF0A2814286E5DEFA6
:1056B8002BF08A8428C009F02950AFEC24F012009E
:1056C80003500410D8B46BEF2BF06DEF2BF078EF8C
:1056D8002BF003500410D8A474EF2BF076EF2BF0C6
:1056E8007DEF2BF078EF2BF0015024EC24F0D2EF73
:1056F8002BF020EE04F00350D9260450DA22DE50B5
:10570800DE10D8B48AEF2BF08CEF2BF0A9EF2BF03A
:1057180020EE04F00350D9260450DA2210EE02F0ED
:105728000350E1260450E222DE50E65CE650800A8F
:10573800096EDE50800A0958D8B0A5EF2BF0A7EF04
:105748002BF0D2EF2BF0A9EF2BF020EE02F0035054
:10575800D9260450DA22DECF05F0DDCF06F003C0EB
:10576800D9FF04C0DAFFDECF07F0DDCF08F005501F
:105778000724D96E06500820DA6E01C0DFFF20EE3C
:1057880002F00350D9260450DA22DE2A000EDD2268
:10579800D2EF2BF0D2EF2BF0D2EF2BF01200F6C0A5
:1057A80001F0F7C002F0F8C003F0F9C004F0FAC045
:1057B80005F0FBC006F0FCC007F0FDC008F02D0E98
:1057C800096E7F0E0A6E950E0B6E4C0E0C6E2D0E2A
:1057D8000D6EF40E0E6E510E0F6E580E106E48ECD4
:1057E80027F001C01BF002C01CF003C01DF004C06C
:1057F8001EF005C01FF006C020F007C021F008C049
:1058080022F0010E1B240001F66F000E1C20F76F1A
:10581800000E1D20F86F000E1E20F96F000E1F20CD
:10582800FA6F000E2020FB6F000E2120FC6F000E87
:105838002220FD6FF6C01BF0F7C01CF0F8C01DF069
:10584800F9C01EF0FAC01FF0FBC020F0FCC021F028
:10585800FDC022F0080E3AEF2CF0D8902232213207
:1058680020321F321E321D321C321B32E82E31EF1D
:105878002CF01BC019F01DC01AF043EF2CF01200D9
:10588800000E066E04BE4DEF2CF04BEF2CF055EFDA
:105898002CF0036C041ED8B0042A010E066E55EFD6
:1058A8002CF002BE5CEF2CF05AEF2CF064EF2CF0D9
:1058B800016C021ED8B0022A010E061A64EF2CF001
:1058C800000E086E000E076E03500410D8B46FEF78
:1058D8002CF071EF2CF0A5EF2CF0010E056E7BEF8C
:1058E8002CF0D89003360436052A7BEF2CF004AE52
:1058F80080EF2CF082EF2CF075EF2CF086EF2CF077
:1059080086EF2CF0D890073608360350015C045017
:105918000258D8A092EF2CF094EF2CF09BEF2CF0CB
:105928000350015E0450025A07809BEF2CF0D89078
:1059380004320332052E86EF2CF0A5EF2CF0A5EFEC
:105948002CF00650D8B4ABEF2CF0ADEF2CF0B3EF41
:105958002CF0076C081ED8B0082AB3EF2CF007C04B
:1059680001F008C002F0B9EF2CF0120032C0D9FFE4
:1059780033C0DAFFDE04DE10D8A4C5EF2CF0C7EF81
:105988002CF0F7EF2CF00F0E3024366E000E31207D
:10599800376E37BEDBEF2CF0375007E13C0E365C34
:1059A800D8B0D9EF2CF0DBEF2CF0F7EF2CF032C0A9
:1059B800D9FF33C0DAFF000EDE6E000EDD6E30C098
:1059C8002AF031C02BF04AEC28F0050E3024306E56
:1059D800000E3120316E30C02AF031C02BF0F0ECCF
:1059E80027F038EF2DF034C0D9FF35C0DAFFDE04D8
:1059F800DE10D8A402EF2DF004EF2DF02EEF2DF0DD
:105A080031BE10EF2DF0315009E1050E305CD8A001
:105A180010EF2DF012EF2DF02EEF2DF034C0D9FF3E
:105A280035C0DAFF000EDE6E000EDD6E30C02AF0E3
:105A380031C02BF04AEC28F0FB0E3024306EFF0EFC
:105A48003120316E30C02AF031C02BF0F0EC27F055
:105A580038EF2DF030C02AF031C02BF0F0EC27F0F1
:105A680038EF2DF038EF2DF030C030F031C031F084
:105A78003EEF2DF01200106E000E136E0A0E101875
:105A8800D8A449EF2DF04BEF2DF053EF2DF0000E79
:105A98000001C76FC62BD8EF2DF0D8EF2DF03F0EC1
:105AA8000001C7655AEF2DF05CEF2DF063EF2DF084
:105AB800010E136EC751C00F116E67EF2DF0C7C0EE
:105AC80011F067EF2DF01050080DF3CF0EF0F4CF62
:105AD8000FF0000E126E070E126475EF2DF077EFBF
:105AE8002DF07BEF2DF0D5EF2DF0D5EF2DF03F0EFB
:105AF800116481EF2DF083EF2DF098EF2DF0400E1B
:105B0800115E010E136E8A9411504009096E1350EC
:105B1800AFEC24F00001C651B809096E1350AFEC80
:105B280024F08A8498EF2DF00B50D8B49EEF2DF016
:105B3800A0EF2DF0B4EF2DF012500E240C6E000ED5
:105B48000F200D6E150E0C24F66E730E0D20F76ED9
:105B58000800F5CF09F01350AFEC24F0C9EF2DF091
:105B680012500E240C6E000E0F200D6E150E0C2414
:105B7800F66E730E0D20F76E0800F550FF0A096ED9
:105B88001350AFEC24F0C9EF2DF0112A122A070E9A
:105B98001264D1EF2DF0D3EF2DF07BEF2DF0D5EF80
:105BA8002DF0080E0001C72712000F6E000E116EAF
:105BB8000A0E0F18D8A4E3EF2DF0E5EF2DF0EDEF66
:105BC8002DF0000E0001C76FC62B7EEF2EF07EEF82
:105BD8002EF03F0E0001C765F4EF2DF0F6EF2DF023
:105BE800FDEF2DF0010E116EC751C00F0E6E01EFC3
:105BF8002EF0C7C00EF001EF2EF0200E0F5E000E43
:105C0800106E020E10640BEF2EF00DEF2EF011EF58
:105C18002EF07BEF2EF07BEF2EF03F0E0E6417EF89
:105C28002EF019EF2EF02EEF2EF0400E0E5E010E24
:105C3800116E8A940E504009096E1150AFEC24F091
:105C48000001C651B809096E1150AFEC24F08A84DE
:105C58002EEF2EF00B50D8B434EF2EF036EF2EF096
:105C680052EF2EF00F50030D150E0C6E7F0E0D6EB9
:105C7800F3500C26F4500D221050010DF3500C2651
:105C8800F4500D220CC0F6FF0DC0F7FF0800F5CF49
:105C980009F01150AFEC24F06FEF2EF00F50030D08
:105CA800150E0C6E7F0E0D6EF3500C26F4500D225F
:105CB8001050010DF3500C26F4500D220CC0F6FFC5
:105CC8000DC0F7FF0800F550FF0A096E1150AFEC40
:105CD80024F06FEF2EF00E2A102A020E106477EFD0
:105CE8002EF079EF2EF011EF2EF07BEF2EF0050E4F
:105CF8000001C7271200000E0114096E000E0214DD
:105D08000A6E800E03140B6E7F0E04140C6E09507D
:105D18000A100B100C10D8A494EF2EF096EF2EF06A
:105D2800A0EF2EF0000E016E000E026E000E036E44
:105D3800000E046EA0EF2EF0000E0514096E000E82
:105D480006140A6E800E07140B6E7F0E08140C6E74
:105D580009500A100B100C10D8A4B5EF2EF0B7EFAD
:105D68002EF0C1EF2EF0000E056E000E066E000E2E
:105D7800076E000E086EC1EF2EF004AEC6EF2EF0CF
:105D8800C8EF2EF0E7EF2EF001C009F002C00AF0CC
:105D980003C00BF004C00CF0091E0A1E0B1E0C1EDB
:105DA800092A000E0A220B220C22000E0924016E79
:105DB800000E0A20026E000E0B20036E800E0C20CF
:105DC800046EE7EF2EF008AEECEF2EF0EEEF2EF0BB
:105DD8000BEF2FF005C009F006C00AF007C00BF062
:105DE80008C00CF0091E0A1E0B1E0C1E092A000E04
:105DF8000A220B220C22000E0924056E000E0A202E
:105E0800066E000E0B20076E800E0C20086E000E2A
:105E1800011A000E021A000E031A800E041A000E50
:105E2800051A000E061A000E071A800E081A0550E9
:105E3800015C065002580750035808500458D8B05F
:105E480028EF2FF02AEF2FF02DEF2FF0D89032EF18
:105E58002FF0D88032EF2FF032EF2FF01200000E23
:105E6800126E08BE3CEF2FF03AEF2FF050EF2FF0F4
:105E7800081E071E061E051E041E031E021E016CB8
:105E8800000E0222032204220522062207220822EB
:105E9800010E126E50EF2FF010BE57EF2FF055EF96
:105EA8002FF069EF2FF0101E0F1E0E1E0D1E0C1E78
:105EB8000B1E0A1E096C000E0A220B220C220D2250
:105EC8000E220F22102269EF2FF009500A100B1032
:105ED8000C100D100E100F101010D8B476EF2FF014
:105EE80078EF2FF0CCEF2FF0010E116E88EF2FF026
:105EF800D89009360A360B360C360D360E360F3664
:105F08001036112A88EF2FF010AE8DEF2FF08FEF9B
:105F18002FF07CEF2FF093EF2FF093EF2FF0095035
:105F2800015C0A5002580B5003580C5004580D508D
:105F380005580E5006580F50075810500858D8A04A
:105F4800A8EF2FF0AAEF2FF0BCEF2FF00950015E59
:105F58000A50025A0B50035A0C50045A0D50055A55
:105F68000E50065A0F50075A1050085ABCEF2FF01F
:105F7800D89010320F320E320D320C320B320A32F8
:105F88000932112E93EF2FF0CCEF2FF0CCEF2FF03A
:105F98001250D8B4D2EF2FF0D4EF2FF0E6EF2FF055
:105FA800081E071E061E051E041E031E021E016C87
:105FB800000E0222032204220522062207220822BA
:105FC800E6EF2FF001C001F002C002F003C003F0B9
:105FD80004C004F005C005F006C006F007C007F0CD
:105FE80008C008F0F8EF2FF01200000E126E10BE75
:105FF80002EF30F000EF30F016EF30F0101E0F1EF9
:106008000E1E0D1E0C1E0B1E0A1E096C000E0A2207
:106018000B220C220D220E220F221022010E126ECC
:1060280016EF30F008BE1DEF30F01BEF30F031EF07
:1060380030F0081E071E061E051E041E031E021E43
:10604800016C000E022203220422052206220722E6
:106058000822010E121A31EF30F020EE13F0070E6D
:10606800DE6AE806FDE209500A100B100C100D104C
:106078000E100F101010D8B444EF30F046EF30F087
:10608800A4EF30F0010E116E56EF30F0D8900936BB
:106098000A360B360C360D360E360F361036112AE8
:1060A80056EF30F010AE5BEF30F05DEF30F04AEFB6
:1060B80030F061EF30F061EF30F0D89013361436DD
:1060C800153616361736183619361A360950015C41
:1060D8000A5002580B5003580C5004580D500558DC
:1060E8000E5006580F50075810500858D8A07FEF88
:1060F80030F081EF30F094EF30F00950015E0A5033
:10610800025A0B50035A0C50045A0D50055A0E509F
:10611800065A0F50075A1050085A138094EF30F05F
:10612800D89010320F320E320D320C320B320A3246
:106138000932112E61EF30F0A4EF30F0A4EF30F007
:106148001250D8B4AAEF30F0ACEF30F0BEEF30F018
:106158001A1E191E181E171E161E151E141E136C45
:10616800000E1422152216221722182219221A228A
:10617800BEEF30F013C001F014C002F015C003F0F8
:1061880016C004F017C005F018C006F019C007F0D3
:106198001AC008F0D0EF30F0120042C0D9FF43C057
:1061A800DAFFDECFF6FFDDCFF7FF0800F550250A4E
:1061B800D8A4E1EF30F0E3EF30F097EF31F042C0D0
:1061C800D9FF43C0DAFFDE2A000EDD22000E0001EF
:1061D800BF6F000EBE6FBEC0C2F0BFC0C3F0C069C3
:1061E800C16942C0D9FF43C0DAFFDECFF6FFDDCF79
:1061F800F7FF0800F550640AD8B405EF31F007EF4F
:1062080031F01BEF31F042C0D9FF43C0DAFFDECFD7
:10621800F6FFDDCFF7FF0800F550690AD8A417EF9D
:1062280031F019EF31F05DEF31F01BEF31F042C082
:10623800D9FF43C0DAFFDE2A000EDD2244C0D9FFB1
:1062480045C0DAFFDFCF46F0020EDE26DFCF47F08B
:10625800000EDD2246C0D9FF47C0DAFFDECF48F086
:10626800DDCF49F0000E49BEFF0E4A6E4B6E4C6EF4
:106278004D6E4E6E4F6E40C01CF041C01DF048C0C0
:106288001EF049C01FF04AC020F04BC021F04CC09E
:1062980022F04DC023F04EC024F04FC025F0B3ECDF
:1062A80033F01CC040F01DC041F0B6EF31F0B6EF3E
:1062B80031F042C0D9FF43C0DAFFDECFF6FFDDCFB1
:1062C800F7FF0800F550250AD8A46DEF31F06FEFFD
:1062D80031F088EF31F042C0D9FF43C0DAFFDE2A3F
:1062E800000EDD22000E026E250E016E40C003F086
:1062F80041C004F064EC2BF0000E416E010E406EBC
:10630800B6EF31F0B6EF31F042C0D9FF43C0DAFF43
:10631800DE2A000EDD22000E416E000E406EB6EF42
:1063280031F0B6EF31F042C0D9FF43C0DAFFDECF1B
:10633800F6FFDDCFF7FF0800F550016E026A40C096
:1063480003F041C004F064EC2BF042C0D9FF43C015
:10635800DAFFDE2A000EDD22000E416E010E406ECD
:10636800B6EF31F01200096E0950D8B4BEEF31F023
:10637800C0EF31F0E2EF31F004BEC7EF31F0C5EF06
:1063880031F0E2EF31F001C005F002C006F003C0C1
:1063980007F004C008F0051E061E071E081E052A81
:1063A800000E06220722082205C00BF006C00CF0DA
:1063B80007C00DF008C00EF0ECEF31F001C00BF093
:1063C80002C00CF003C00DF004C00EF0ECEF31F089
:1063D8000150021003100410D8A4F5EF31F0F7EFC4
:1063E80031F003EF32F0000E016E000E026E000E67
:1063F800036E000E046EA4EF32F0A4EF32F0960E96
:106408000A6E0FEF32F00A2AD8900E320D320C3293
:106418000B320FEF32F0000E0B14056E000E0C1449
:10642800066E000E0D14076EFE0E0E14086E055053
:10643800061007100810D8A424EF32F026EF32F027
:1064480007EF32F036EF32F036EF32F00A2A010E5B
:106458000B26000E0C220D220E22D8900E320D3281
:106468000C320B32000E0B14056E000E0C14066E67
:10647800000E0D14076EFF0E0E14086E0550061060
:1064880007100810D8A44BEF32F04DEF32F02AEF86
:1064980032F059EF32F059EF32F00A06D8900B3645
:1064A8000C360D360E3659EF32F00DBE5EEF32F077
:1064B80060EF32F06AEF32F0020E0A6066EF32F0F7
:1064C80068EF32F051EF32F06AEF32F00AB06FEF56
:1064D80032F071EF32F074EF32F00D9E74EF32F05B
:1064E800D8900A320AC005F0066A076A086A05C029
:1064F80008F0076A066A056A05500B1206500C1266
:1065080007500D1208500E120950D8B48EEF32F011
:1065180090EF32F09AEF32F004BE97EF32F095EF39
:1065280032F09AEF32F00E8E9AEF32F00BC001F093
:106538000CC002F00DC003F00EC004F0A4EF32F05E
:1065480012007AC0D9FF7BC0DAFFDECF80F0DDCF42
:1065580081F07AC0D9FF7BC0DAFFDECF7EF0DDCFD5
:106568007FF00F0E00017E25826F000E7F21836F62
:1065780076C0D9FF77C0DAFFDECF84F0DDCF85F0B3
:1065880076C0D9FF77C0DAFFDECF7EF0DDCF7FF0AF
:10659800020E7E25866F000E7F21876F78C0D9FF97
:1065A80079C0DAFFDECF7EF0DDCF7FF0020E7E25E8
:1065B800886F000E7F21896F3C0E88198911D8A435
:1065C800E8EF32F0EAEF32F0ACEF33F0190E236E59
:1065D800FF0E246E780EF7EC2AF000018051845DDE
:1065E8008551800A7E6F8151800A7E59D8A0FFEFBD
:1065F80032F001EF33F02AEF33F08651825D835198
:10660800800A7E6F8751800A7E59D8A00EEF33F03A
:1066180010EF33F02AEF33F07CC001F07DC002F0B8
:1066280052EC24F076C032F077C033F078C034F002
:1066380079C035F07AC036F07BC037F07CC038F0CE
:106648007DC039F0EBEC24F0A3EF33F0000EA4EC9E
:1066580028F0030E0B6E120E7FEC26F07CC0D9FFDB
:106668007DC0DAFF000EDE6E000EDD6EE70E146EE2
:106678007F0E156E610E166E010E176E9BEC27F0DD
:10668800EF0E036E000E046EE80E056E000E066E29
:10669800070E076E00EC29F0000E00018B6F000E4C
:1066A8008A6F000E8B6F000E8A6F8BBF65EF33F019
:1066B8008B5109E1280E8A5DD8A065EF33F067EFAA
:1066C80033F06BEF33F086EF33F086EF33F0EA0EFA
:1066D80000017E6FC30EE82EFED77E2FFCD7000187
:1066E8008A4B8B2B8BBF82EF33F08B5109E1280E3D
:1066F8008A5DD8A082EF33F084EF33F06BEF33F08C
:1067080086EF33F0000EA4EC28F07CC05EF07DC06C
:106718005FF0B7EC26F076C032F077C033F078C07F
:1067280034F079C035F07AC036F07BC037F07CC0E1
:1067380038F07DC039F0EBEC24F0A3EF33F0000E15
:106748000001776F010E766FB2EF33F0B2EF33F0DE
:10675800000E776F000E766FB2EF33F012001EC096
:1067680036F01FC037F020C038F021C039F022C001
:106778003AF023C03BF024C03CF025C03DF03DBEBC
:10678800C8EF33F0CBEF33F0010ECCEF33F0000E4F
:10679800346E356A34503510D8B4D5EF33F0D7EFAE
:1067A80033F0E9EF33F03D1E3C1E3B1E3A1E391E06
:1067B800381E371E366C000E3722382239223A220C
:1067C8003B223C223D22E9EF33F00001C1BFEFEF4D
:1067D80033F0F1EF33F0F4EF33F0C293F4EF33F02A
:1067E800C1BF01EF34F0C15106E1C005D8B0FFEFD9
:1067F80033F001EF34F007EF34F0000E316E010E84
:10680800306E0BEF34F0C0C030F0C1C031F0BEC004
:1068180032F0BFC033F034503510D8A416EF34F03E
:1068280018EF34F021EF34F0C2A51DEF34F01FEF5C
:1068380034F026EF34F021EF34F03206D8A03306D6
:1068480026EF34F0000E3F6E1F0E3E6EC80E3E243B
:10685800D96E000E3F20DA6E000EDF6EB2EF34F014
:106868003E06D8A03F06C80E3E24D96E000E3F2033
:10687800DA6E36C001F037C002F038C003F039C014
:1068880004F03AC005F03BC006F03CC007F03DC03C
:1068980008F00A0E096E000E0A6E000E0B6E000E4E
:1068A8000C6E000E0D6E000E0E6E000E0F6E000EBA
:1068B800106E33EC2FF001C026F002C027F003C0A1
:1068C80028F004C029F005C02AF006C02BF007C044
:1068D8002CF008C02DF026C013F028C014F00AECE4
:1068E80025F01350300FDF6E3006D8A0310632067F
:1068F800D8A0330636C001F037C002F038C003F024
:1069080039C004F03AC005F03BC006F03CC007F0BF
:106918003DC008F00A0E096E000E0A6E000E0B6EDE
:10692800000E0C6E000E0D6E000E0E6E000E0F6E39
:10693800000E106EF9EC2FF001C036F002C037F0EF
:1069480003C038F004C039F005C03AF006C03BF087
:1069580007C03CF008C03DF0B2EF34F03FBEBDEFD9
:1069680034F03F5008E13E04D8A0BDEF34F0BFEF4B
:1069780034F0F6EF34F036503710381039103A103A
:106988003B103C103D10D8A4CCEF34F0CEEF34F0DF
:1069980034EF34F031BEDBEF34F0315006E130042F
:1069A800D8B0D9EF34F0DBEF34F034EF34F033BE45
:1069B800E6EF34F0335008E13204D8A0E6EF34F0C3
:1069C800E8EF34F0F6EF34F00001C2B3EEEF34F044
:1069D800F0EF34F034EF34F0F6EF34F0F6EF34F053
:1069E800F6EF34F034503510D8A4FDEF34F0FFEF53
:1069F80034F009EF35F00001C2A505EF35F007EFD7
:106A080035F02BEF35F009EF35F03E06D8A03F06FC
:106A180034503510D8A413EF35F015EF35F01BEFCF
:106A280035F0000E2F6E2B0E2E6E21EF35F0000E76
:106A38002F6E2D0E2E6E21EF35F0C80E3E24D96E26
:106A4800000E3F20DA6E2EC0DFFF2BEF35F01CC0A2
:106A580011F01DC012F0C80E3E24136E000E3F2028
:106A6800146E32C015F033C016F08CEC2AF011C049
:106A78001CF012C01DF041EF35F012001250800BCF
:106A88001F6E12501224266E11AE4DEF35F04FEFE7
:106A980035F052EF35F0268052EF35F02650D8B455
:106AA80058EF35F05AEF35F071EF35F02628D8A4B5
:106AB80060EF35F062EF35F06CEF35F0000E0F6ED9
:106AC800000E106E000E116E000E126E6CEF35F097
:106AD800118E000E126E7BEF35F0000E0F6E000E59
:106AE800106E000E116E000E126E7BEF35F0165010
:106AF800800B1F1A16501624276E15AE86EF35F038
:106B080088EF35F08BEF35F027808BEF35F0275085
:106B1800D8B491EF35F093EF35F0AAEF35F0272888
:106B2800D8A499EF35F09BEF35F0A5EF35F0000EBE
:106B3800136E000E146E000E156E000E166EA5EF85
:106B480035F0158E000E166EB4EF35F0000E136E8C
:106B5800000E146E000E156E000E166EB4EF35F0B2
:106B68001350141015101610D8A4BDEF35F0BFEF50
:106B780035F0D9EF35F0000E0F6E000E106E000ED6
:106B8800116E000E126E800E11127F0E12121F501F
:106B980012120FC00FF010C010F011C011F012C087
:106BA80012F051EF37F051EF37F02650D8A4DFEF4D
:106BB80035F0E1EF35F0F5EF35F0000E0F6E000E11
:106BC800106E000E116E000E126E0FC00FF010C086
:106BD80010F011C011F012C012F051EF37F051EF60
:106BE80037F02750176E186A171E181E174A182AEA
:106BF8002650196E1A6A1750192618501A227F0E35
:106C08001924206E000E1A20216E0FC01BF010C030
:106C18001CF011C01DF012C01EF0000E0F6E000E09
:106C2800106E000E116E000E126E000E226E000E17
:106C3800236E000E246E000E256E000E276E61EF87
:106C480036F02750D8B42BEF36F02DEF36F046EF5C
:106C580036F0D8901B361C361D361E36D8900F36A7
:106C680010361136123625AE3CEF36F03EEF36F0D0
:106C78003FEF36F00F80D89022362336243625365B
:106C880046EF36F013501B5C14501C5815501D5815
:106C980016501E58D8A053EF36F055EF36F060EF77
:106CA80036F0258C13501B5E14501C5A15501D5A73
:106CB80016501E5A60EF36F0272A190E276467EF20
:106CC80036F069EF36F025EF36F06BEF36F01B50F3
:106CD8001C101D101E10D8B474EF36F076EF36F085
:106CE80092EF36F0228092EF36F092EF36F0D8909D
:106CF8000F3610361136123625AE85EF36F087EF8F
:106D080036F088EF36F00F80D890223623362436B6
:106D180025362006D8A0210692EF36F011AE97EF5F
:106D280036F099EF36F07BEF36F09BEF36F0000E39
:106D3800276E25AEA2EF36F0A4EF36F0CCEF36F092
:106D4800FF0E2214176EFF0E2314186EFF0E241464
:106D5800196E7F0E25141A6E1750181019101A1074
:106D6800D8B4B9EF36F0BBEF36F0BFEF36F0010E0E
:106D7800276ECCEF36F00FA0C4EF36F0C6EF36F032
:106D8800CCEF36F0010E276ECCEF36F0CCEF36F0B4
:106D98002750D8B4D2EF36F0D4EF36F0FCEF36F007
:106DA800010E0F26000E10221122122212A0DFEF70
:106DB80036F0E1EF36F0FCEF36F00FC017F010C0F8
:106DC80018F011C019F012C01AF01A341A32193218
:106DD8001832173217C00FF018C010F019C011F090
:106DE8001AC012F0204A212AFCEF36F0FCEF36F0E8
:106DF80021BE07EF37F0215008E12028D8A007EF7F
:106E080037F009EF37F016EF37F0000E216E2068E3
:106E1800000E0F6E000E106E000E116E000E126E38
:106E280016EF37F021BE23EF37F0215006E120049A
:106E3800D8B021EF37F023EF37F033EF37F0000EFB
:106E4800216E000E206E000E0F6E000E106E000EEA
:106E5800116E000E126E000E1F6E33EF37F020C059
:106E680026F026A03AEF37F03CEF37F03FEF37F047
:106E7800118E42EF37F0119E42EF37F0D89026304E
:106E8800126E1F5012120FC00FF010C010F011C078
:106E980011F012C012F051EF37F01200000E016E1F
:106EA800000E026EC8EC25F001C08CF002C08DF017
:106EB80003C08EF004C08FF005C090F006C091F0BA
:106EC80007C092F008C093F08CC009F08EC00AF099
:106ED8007CEC24F077EC25F0010EF8EC26F0000E9F
:106EE80000019C6F000E9D6FC80E9E6F420E9F6F33
:106EF800000EA06F000EA16FC80EA26F420EA36F06
:106F0800720ED36E949E948C949094828B9E800E75
:106F1800CD6E9E90000ECF6E000ECE6E8B90800EC2
:106F2800B16EA192000EB36E000EB26E000EA96F84
:106F3800000EA86FA80EB26F000EB36F000EAB6FF5
:106F4800000EAA6FAA0EB46F000EB56F000EA56FE3
:106F5800000EA46F000EAD6F000EAC6FAC0EAE6FDE
:106F6800000EAF6F000EBB6F020EBA6FBA0E986FAD
:106F7800000E996F000EB66F000EB76F000EB16F5E
:106F8800020EB06FB00EB86F000EB96F000EA76F8B
:106F9800000EA66FA60E9A6F000E9B6FCCEC24F025
:106FA80021EC2AF0170E036E010E046E000E056E1A
:106FB800010E066E170E076E00EC29F0BAC02AF013
:106FC800BBC02BF0F0EC27F0AEC05EF0AFC05FF0B6
:106FD800B7EC26F0F0EF37F00001A451A511D8A4C2
:106FE800F8EF37F0FAEF37F024EF38F0B6C02AF0B0
:106FF800B7C02BF0B8C02CF0B9C02DF09AC02EF055
:107008009BC02FF02CEC25F0B6C02AF0B7C02BF0AF
:10701800B8C02CF0B9C02DF0BFEC29F00001A44B8A
:10702800A52B020E00018D6F040E8C6FBA0EE82E90
:10703800FED78C2FFCD78D2FFAD700F024EF38F02D
:10704800B6C076F0B7C077F0B8C078F0B9C079F0BC
:1070580098C07AF099C07BF0AEC07CF0AFC07DF0EC
:10706800A5EC32F0000176517711D8B43EEF38F034
:1070780040EF38F059EF38F0000EA56F000EA46FFE
:10708800020E00018D6F040E8C6FBA0EE82EFED72B
:107098008C2FFCD78D2FFAD700F0AEC05EF0AFC0B2
:1070A8005FF0B7EC26F07CEF38F0B6C02AF0B7C036
:1070B8002BF0B8C02CF0B9C02DF05DEC29F0B6C0AB
:1070C80032F0B7C033F0B8C034F0B9C035F040EC96
:1070D80024F0020E00018D6F040E8C6FBA0EE82E9C
:1070E800FED78C2FFCD78D2FFAD700F07CEF38F025
:1070F8002BEC24F080EF38F082AC85EF38F087EF86
:1071080038F080EF38F089EF38F0000ECF6E000EBF
:10711800CE6ECD8090EF38F082BC95EF38F097EFC7
:1071280038F090EF38F0CECF94F0CFCF95F0CD90E7
:1071380094C001F095C002F0000E02BEFF0E036E6F
:10714800046E010EB7EC31F001C00FF002C010F070
:1071580003C011F004C012F0000E136E000E146E7E
:10716800EA0E156E420E166E42EC35F00FC09CF01A
:1071780010C09DF011C09EF012C09FF032EC24F0B8
:10718800C6EF38F082A2CBEF38F0CDEF38F0C6EF7B
:1071980038F0CFEF38F0000EB36E000EB26EB1804B
:1071A800D6EF38F082B2DBEF38F0DDEF38F0D6EF0B
:1071B80038F0B2CF96F0B3CF97F0B19096C001F007
:1071C80097C002F0000E02BEFF0E036E046E010EA1
:1071D800B7EC31F001C00FF002C010F003C011F09D
:1071E80004C012F0000E136E000E146EEA0E156E37
:1071F800420E166E42EC35F00FC0A0F010C0A1F0A0
:1072080011C0A2F012C0A3F09CC001F09DC002F012
:107218009EC003F09FC004F0000E056E000E066EBF
:10722800800E076E400E086E7FEC2EF0D8B01FEF70
:1072380039F021EF39F03DEF39F0B2C0D9FFB3C0D2
:10724800DAFF010EDE6E000EDD6EBAC030F0BBC094
:1072580031F0B2C032F0B3C033F0B4C034F0B5C0CE
:1072680035F0BAEC2CF030C0BAF031C0BBF03DEFCD
:1072780039F0A0C001F0A1C002F0A2C003F0A3C081
:1072880004F0000E056E000E066E800E076E400EAE
:10729800086E7FEC2EF0D8B054EF39F056EF39F085
:1072A80072EF39F0B4C0D9FFB5C0DAFF010EDE6E57
:1072B800000EDD6EBAC030F0BBC031F0B2C032F0A3
:1072C800B3C033F0B4C034F0B5C035F0BAEC2CF02C
:1072D80030C0BAF031C0BBF072EF39F0BAC030F04C
:1072E800BBC031F0B2C032F0B3C033F0B4C034F038
:1072F800B5C035F0BAEC2CF030C0BAF031C0BBF0F4
:10730800F0EF37F0F0EF37F000EF00F0000000008A
:107318000000000000000000000000000000000065
:107328000000000000000000000000000000000055
:107338000000000000000000000000000000000045
:107348000000000000000000000000000000000035
:107358000000000000000000000000000000000025
:107368000000000000000000000000000000000015
:107378000000000000000000000000000000000005
:1073880000000000000000000000000000000000F5
:1073980000000000000000000000000000000000E5
:1073A80000000000000000000000000000000000D5
:1073B80000000000000000000000000000000000C5
:1073C80000000000000000000000000000000000B5
:1073D80000000000000000000000000000000000A5
:1073E8000000000000000000000000000000000095
:1073F8000000000000000000000000000000000085
:107408000000000000000000000000000000000074
:10741800000000000000065F5F060000000007078C
:107428000007070000147F7F147F7F1400242E6B51
:107438006B3A120000466630180C666200307A4FCC
:107448005D377A48000407030000000000001C3E76
:1074580063410000000041633E1C000000082A3E12
:107468001C1C3E2A0808083E3E080800000080E070
:107478006000000000080808080808000000006014
:1074880060000000006030180C060301003E7F71A8
:10749800594D7F3E0040427F7F4040000062735953
:1074A800496F660000226349497F360000181C16A0
:1074B800537F7F5000276745457D3900003C7E4B50
:1074C8004979300000030371790F070000367F49BE
:1074D800497F360000064F49693F1E0000000066DC
:1074E80066000000000080E66600000000081C3608
:1074F8006341000000242424242424000000416364
:10750800361C080000020351590F0600003E7F4157
:107518005D5D1F1E007C7E13137E7C0000417F7F13
:1075280049497F36001C3E634141632200417F7F09
:1075380041633E1C00417F7F495D416300417F7F7D
:10754800491D0103001C3E6341517372007F7F088F
:10755800087F7F000000417F7F41000000307040BD
:10756800417F3F0100417F7F081C776300417F7F97
:1075780041406070007F7F0E1C0E7F7F007F7F067A
:107588000C187F7F001C3E6341633E1C00417F7FD7
:1075980049090F06001E3F21717F5E0000417F7F71
:1075A80009197F6600266F4D597332000003417F29
:1075B8007F410300007F7F40407F7F00001F3F60C6
:1075C800603F1F00007F7F3018307F7F0043673C9B
:1075D800183C674300074F78784F070000476371EE
:1075E800594D677300007F7F414100000001030689
:1075F8000C183060000041417F7F000000080C0635
:1076080003060C0800808080808080808000000352
:107618000704000000207454543C784000417F3F28
:107628004848783000387C44446C2800003078485A
:10763800493F7F4000387C54545C180000487E7FE6
:10764800490302000098BCA4A4F87C0400417F7F91
:1076580008047C780000447D7D4000000060E080E4
:1076680080FD7D0000417F7F10386C440000417F21
:107678007F400000007C7C18381C7C78007C7C04EF
:10768800047C780000387C44447C38000084FCF892
:10769800A4243C1800183C24A4F8FC8400447C78FA
:1076A8004C041C1800485C54547424000000043E28
:1076B8007F442400003C7C40403C7C40001C3C60F3
:1076C800603C1C00003C7C7038707C3C00446C388A
:1076D80010386C44009CBCA0A0FC7C00004C647476
:1076E8005C4C64000008083E77414100000000003F
:1076F80077770000004141773E0808000002030147
:10770800030203010070784C464C7870000E9F917C
:10771800B1FB4A00003A7A40407A7A4000387C54FB
:10772800555D19000002237555557D7B422175541E
:10773800547D794000217555547C78400020745759
:10774800577C784000183CA4A4E4400000023B7D2C
:1077580055555D1B02397D54545D190000397D551E
:10776800545C18000001457C7C410100000203457F
:107778007D7D43020001457D7C40000000797D1637
:1077880012167D790070782B2B78700000447C7C71
:107798005555450000207454547C7C54547C7E0B11
:1077A800097F7F4900327B49497B320000327A48A1
:1077B800487A320000327A4A48783000003A7B41F1
:1077C800417B7A40003A7A4240787840009ABAA0E1
:1077D800A0FA7A000001193C66663C19013D7D401B
:1077E800407D3D0000183C24E7E7242400687E7FA4
:1077F80049436620002B2FFCFC2F2B0000FFFF09BC
:10780800092FF6F8A040C088FE7F090302207454AF
:10781800557D79400000447D7D4100000030784866
:107828004A7A320000387840427A7A40007A7A0AF6
:107838000A7A7000007D7D19317D7D000000262FB9
:10784800292F2F280000262F292F26000030784DB9
:1078580045602000003838080808080000080808B3
:1078680008383800004F6F3018CCEEBB914F6F309E
:10787800186C76FBF90000007B7B000000081C36C2
:1078880022081C362222361C0822361C08AA00555B
:1078980000AA005500AA55AA55AA55AA55DDFFAA5F
:1078A80077DDAAFF77000000FFFF0000001010102E
:1078B800FFFF000000141414FFFF0000001010FF69
:1078C800FF00FFFF001010F0F010F0F00014141487
:1078D800FCFC0000001414F7F700FFFF000000FF95
:1078E800FF00FFFF001414F4F404FCFC0014141748
:1078F80017101F1F0010101F1F101F1F0014141433
:107908001F1F000000101010F0F000000000000021
:107918001F1F1010101010101F1F10101010101023
:10792800F0F0101010000000FFFF101010101010E1
:107938001010101010101010FFFF10101000000091
:10794800FFFF1414140000FFFF00FFFF1000001FCA
:107958001F101717140000FCFC04F4F41414141777
:1079680017101717141414F4F404F4F4140000FF97
:10797800FF00F7F71414141414141414141414F73F
:10798800F700F7F714141414171714141410101F11
:107998001F101F1F10141414F4F41414141010F0F2
:1079A800F010F0F01000001F1F101F1F1000000043
:1079B8001F1F141414000000FCFC1414140000F021
:1079C800F010F0F0101010FFFF10FFFF1014141447
:1079D800FFFF1414141010101F1F000000000000F7
:1079E800F0F0101010FFFFFFFFFFFFFFFFF0F0F0B7
:1079F800F0F0F0F0F0FFFFFFFF00000000000000D3
:107A080000FFFFFFFF0F0F0F0F0F0F0F0F387C4402
:107A18006C386C4400FCFE2A2A3E1400007E7E026C
:107A28000206060000027E7E027E7E020063775D0B
:107A38004963630000387C447C3C04040080FE7E7B
:107A480020203E1E000406027E7C06020099BDE747
:107A5800E7BD9900001C3E6B496B3E1C004C7E73D1
:107A680001737E4C0030784A4F7D390000183C2461
:107A78003C3C243C1898FC643C3E273D1800000020
:107A880000000000000000000000000000000000EE
:107A980000000000000000000000000000000000DE
:107AA80000000000000000000000000000000000CE
:107AB80000000000000000000000000000000000BE
:107AC80000000000000000000000000000000000AE
:107AD800000000000000000000000000000000009E
:107AE800000000000000000000000000000000008E
:107AF800000000000000000000000000000000007E
:107B0800000000000000000000000000000000006D
:107B1800000000000000000000000000000000005D
:107B2800000030707060C0E0B0800000000000000D
:107B3800000000000000000000000000000000003D
:107B4800000000000000000000000000000000002D
:107B5800000000000000000000000000000000001D
:107B6800000000000000000000000000000000000D
:107B780080808098B8B8B0E0F0D8C08080808080DD
:107B880000000000000000000000000000000000ED
:107B980000000000000000000000000000F8FEFFE8
:107BA800FFFFFFFFFFFFFFFFFFFFFFFFFFFFFFFEDE
:107BB8007800000000000000000000000000000045
:107BC80000000000000000000000000000000000AD
:107BD800000000000000000000000000000000009D
:107BE8000000000000000000000000000000FCFF92
:107BF800FFFFFFFFFFFFFFFFFFFFFFFFFFFFFFFF8D
:107C0800FF3C000000000000000000000000000031
:107C18000000000000000000000000000001030751
:107C28000F1F3F3F3F3F3F3F3F3F3F3F1F0F070370
:107C38000000000000002F252521003F2120331ED1
:107C4800003F0001013F010021252521003E2120A0
:107C5800331E0000003F24243F0000073C070000BB
:107C680000002400000000000000000000000001E7
:107C780003070F1F1F1F1F1F1F1F1F1F1F0F070394
:107C880001000000000000000000000000000000EB
:107C98000000000000000000000000000000F88064
:107CA8008080F800C8E8B89800F8282828F800006C
:107CB80000F8808000F8282828F800F82868B8001C
:107CC800F8282828F8000000C820D88800F82828B4
:107CD80028F800D82868B8000808F8080000F860F4
:107CE800D8000000F800F88808A8E800F888A8007C
:107CF80000B8A8E80000F88080F800000000000044
:107D0800000000000000000000000000000000006B
:107D18000000000000000000E020202000E080803B
:107D280080E000E0000000C0602060C00000E0B01B
:107D3800A800000000E08080E00000E00000E00013
:107D480000E0408000E000E020202000E0800060AB
:107D580000000000E02060C00000E0A0A0000000DB
:107D6800E020A040000040602060C00060C080604B
:107D7800002020E02000E0A0A02000C000000000BB
:107D880000000000000000000000000000000000EB
:107D980000000000000000000704040400070000C1
:107DA8000007000704040003868486830080878414
:107DB8008480000080070080070080878404070013
:107DC80080878001060780070484840007008102F9
:107DD8000400000007848683800007048480808074
:107DE8008704048380808206048681808682010756
:107DF80084808087000087C4A484000704040000EE
:107E0800000000000000000000000000000000006A
:107E1800000000000000000000000000000000005A
:107E280000000000000000001F10121F001F0202C7
:107E3800021F00001F10101F00001F10190F000F55
:107E48001910190F00001F00001F01030C181F0054
:107E580000000000001F0202030000001F020202CF
:107E68001F00001312121E000000001F0000000077
:107E78001F060A1300001F12121000000000000065
:107E880000000000000000000000000000000000EA
:107E980000000000000000000000000000000000DA
:107EA80000000000000000000000000000000000CA
:107EB80000000000000000000000000000000000BA
:107EC80000000000000000000000000000000000AA
:107ED800000000000000000000000000000000009A
:107EE800000000000000000000000000000000008A
:107EF800000000000000000000000000000000007A
:107F08000000000000000000000000000000000069
:107F1800005C000C000C7C287C7C447C24104828E5
:107F28005408000C00384400443800201008103869
:107F3800108040001010100040002010083844380D
:107F4800007C006454484454281C107C4C54243849
:107F5800542004740C2854280854380050008050C9
:107F680000102844282828442810045408384C5C59
:107F78007814787C54283844447C44387C54447CB5
:107F880014043844347C107C007C0020403C7C1075
:107F98006C7C40407C087C7C047C7C447C7C1408A1
:107FA8003844787C1468485424047C047C407C3C25
:107FB800403C7C207C6C106C1C601C64544C7C44E1
:107FC80000081020447C0008040880808004080011
:107FD8004341544348205448452042414C4C0050AA
:107FE80045524455202E2E2E203A28200053434F28
:087FF80052453A002564000027
:020000040020DA
:08000000FFFFFFFFFFFFFFFF00
:020000040030CA
:0E000000000C1F1EFF8301FF0FC00FE00F401A
:00000001FF
